{
  "contractName": "University",
  "abi": [
    {
      "inputs": [],
      "stateMutability": "nonpayable",
      "type": "constructor"
    },
    {
      "anonymous": false,
      "inputs": [
        {
          "indexed": true,
          "internalType": "bytes32",
          "name": "_hash",
          "type": "bytes32"
        },
        {
          "indexed": true,
          "internalType": "address",
          "name": "_by",
          "type": "address"
        }
      ],
      "name": "DegreeAdded",
      "type": "event"
    },
    {
      "anonymous": false,
      "inputs": [
        {
          "indexed": false,
          "internalType": "address",
          "name": "_address",
          "type": "address"
        }
      ],
      "name": "ModeratorAdded",
      "type": "event"
    },
    {
      "anonymous": false,
      "inputs": [
        {
          "indexed": false,
          "internalType": "address",
          "name": "_address",
          "type": "address"
        }
      ],
      "name": "ModeratorRemoved",
      "type": "event"
    },
    {
      "inputs": [],
      "name": "university",
      "outputs": [
        {
          "internalType": "address",
          "name": "",
          "type": "address"
        }
      ],
      "stateMutability": "view",
      "type": "function"
    },
    {
      "inputs": [
        {
          "internalType": "bytes32",
          "name": "_sha26PDF",
          "type": "bytes32"
        },
        {
          "internalType": "string",
          "name": "_name",
          "type": "string"
        },
        {
          "internalType": "string",
          "name": "_surname",
          "type": "string"
        }
      ],
      "name": "addNewDegree",
      "outputs": [],
      "stateMutability": "nonpayable",
      "type": "function"
    },
    {
      "inputs": [
        {
          "internalType": "bytes32",
          "name": "_sha26PDF",
          "type": "bytes32"
        }
      ],
      "name": "getDegree",
      "outputs": [
        {
          "internalType": "bytes32",
          "name": "",
          "type": "bytes32"
        },
        {
          "internalType": "uint256",
          "name": "",
          "type": "uint256"
        },
        {
          "internalType": "string",
          "name": "",
          "type": "string"
        },
        {
          "internalType": "string",
          "name": "",
          "type": "string"
        }
      ],
      "stateMutability": "view",
      "type": "function"
    },
    {
      "inputs": [
        {
          "internalType": "address",
          "name": "_addressModerator",
          "type": "address"
        },
        {
          "internalType": "string",
          "name": "_name",
          "type": "string"
        },
        {
          "internalType": "string",
          "name": "_surname",
          "type": "string"
        }
      ],
      "name": "addModerator",
      "outputs": [],
      "stateMutability": "nonpayable",
      "type": "function"
    },
    {
      "inputs": [
        {
          "internalType": "address",
          "name": "_addressModerator",
          "type": "address"
        }
      ],
      "name": "removeModerator",
      "outputs": [],
      "stateMutability": "nonpayable",
      "type": "function"
    },
    {
      "inputs": [
        {
          "internalType": "address",
          "name": "_addressModerator",
          "type": "address"
        }
      ],
      "name": "isModarator",
      "outputs": [
        {
          "internalType": "bool",
          "name": "",
          "type": "bool"
        }
      ],
      "stateMutability": "view",
      "type": "function"
    }
  ],
  "bytecode": "0x608060405234801561001057600080fd5b5033600260006101000a81548173ffffffffffffffffffffffffffffffffffffffff021916908373ffffffffffffffffffffffffffffffffffffffff160217905550611711806100616000396000f3fe608060405234801561001057600080fd5b50600436106100625760003560e01c80633097baca146100675780635902c64b14610097578063869d785f146100b35780639a280367146100cf578063ae12894e146100eb578063d04a419b14610109575b600080fd5b610081600480360381019061007c9190610c40565b61013c565b60405161008e9190610f9e565b60405180910390f35b6100b160048036038101906100ac9190610d25565b6101ad565b005b6100cd60048036038101906100c89190610c40565b61048a565b005b6100e960048036038101906100e49190610c6d565b61061a565b005b6100f36108d6565b6040516101009190610f83565b60405180910390f35b610123600480360381019061011e9190610cf8565b6108fc565b6040516101339493929190610fb9565b60405180910390f35b600060011515600160008473ffffffffffffffffffffffffffffffffffffffff1673ffffffffffffffffffffffffffffffffffffffff16815260200190815260200160002060030160009054906101000a900460ff16151514156101a357600190506101a8565b600090505b919050565b6101b63361013c565b6101f5576040517f08c379a00000000000000000000000000000000000000000000000000000000081526004016101ec906110ec565b60405180910390fd5b600260009054906101000a900473ffffffffffffffffffffffffffffffffffffffff1673ffffffffffffffffffffffffffffffffffffffff163373ffffffffffffffffffffffffffffffffffffffff1614610285576040517f08c379a000000000000000000000000000000000000000000000000000000000815260040161027c9061112c565b60405180910390fd5b6101008251106102ca576040517f08c379a00000000000000000000000000000000000000000000000000000000081526004016102c19061104c565b60405180910390fd5b600082511161030e576040517f08c379a0000000000000000000000000000000000000000000000000000000008152600401610305906110ac565b60405180910390fd5b610100815110610353576040517f08c379a000000000000000000000000000000000000000000000000000000000815260040161034a9061104c565b60405180910390fd5b6000815111610397576040517f08c379a000000000000000000000000000000000000000000000000000000000815260040161038e906110ac565b60405180910390fd5b600080600085815260200190815260200160002060000154146103ef576040517f08c379a00000000000000000000000000000000000000000000000000000000081526004016103e6906110cc565b60405180910390fd5b6000806000858152602001908152602001600020905042816000018190555082816001019080519060200190610426929190610ac3565b508181600201908051906020019061043f929190610ac3565b503373ffffffffffffffffffffffffffffffffffffffff16847fee3f50b5cc7c6cbb1420074ccfefe053108f60cecbe0f85cd5bc0f33832e11a160405160405180910390a350505050565b600260009054906101000a900473ffffffffffffffffffffffffffffffffffffffff1673ffffffffffffffffffffffffffffffffffffffff163373ffffffffffffffffffffffffffffffffffffffff161461051a576040517f08c379a00000000000000000000000000000000000000000000000000000000081526004016105119061112c565b60405180910390fd5b6105238161013c565b610562576040517f08c379a00000000000000000000000000000000000000000000000000000000081526004016105599061108c565b60405180910390fd5b600160008273ffffffffffffffffffffffffffffffffffffffff1673ffffffffffffffffffffffffffffffffffffffff1681526020019081526020016000206000808201600090556001820160006105ba9190610b49565b6002820160006105ca9190610b49565b6003820160006101000a81549060ff021916905550507f7a9f1e23d5426b34819d173153d59084cc3578d5a129b80bb27df683ac6b22788160405161060f9190610f83565b60405180910390a150565b600260009054906101000a900473ffffffffffffffffffffffffffffffffffffffff1673ffffffffffffffffffffffffffffffffffffffff163373ffffffffffffffffffffffffffffffffffffffff16146106aa576040517f08c379a00000000000000000000000000000000000000000000000000000000081526004016106a19061112c565b60405180910390fd5b600073ffffffffffffffffffffffffffffffffffffffff168373ffffffffffffffffffffffffffffffffffffffff16141561071a576040517f08c379a00000000000000000000000000000000000000000000000000000000081526004016107119061110c565b60405180910390fd5b600082511161075e576040517f08c379a00000000000000000000000000000000000000000000000000000000081526004016107559061102c565b60405180910390fd5b60008151116107a2576040517f08c379a00000000000000000000000000000000000000000000000000000000081526004016107999061102c565b60405180910390fd5b6107ab8361013c565b156107eb576040517f08c379a00000000000000000000000000000000000000000000000000000000081526004016107e29061106c565b60405180910390fd5b6000600160008573ffffffffffffffffffffffffffffffffffffffff1673ffffffffffffffffffffffffffffffffffffffff1681526020019081526020016000209050600181600001600082825461084391906111be565b9250508190555082816001019080519060200190610862929190610ac3565b508181600201908051906020019061087b929190610ac3565b5060018160030160006101000a81548160ff0219169083151502179055507fd378ad41c1a753fd1ba9ec0fcd7970526c175b68545b4a02d6d15e7606fe3596846040516108c89190610f83565b60405180910390a150505050565b600260009054906101000a900473ffffffffffffffffffffffffffffffffffffffff1681565b600080606080600080600087815260200190815260200160002060000154141561095b576040517f08c379a00000000000000000000000000000000000000000000000000000000081526004016109529061100c565b60405180910390fd5b84600080878152602001908152602001600020600001546000808881526020019081526020016000206001016000808981526020019081526020016000206002018180546109a8906112a8565b80601f01602080910402602001604051908101604052809291908181526020018280546109d4906112a8565b8015610a215780601f106109f657610100808354040283529160200191610a21565b820191906000526020600020905b815481529060010190602001808311610a0457829003601f168201915b50505050509150808054610a34906112a8565b80601f0160208091040260200160405190810160405280929190818152602001828054610a60906112a8565b8015610aad5780601f10610a8257610100808354040283529160200191610aad565b820191906000526020600020905b815481529060010190602001808311610a9057829003601f168201915b5050505050905093509350935093509193509193565b828054610acf906112a8565b90600052602060002090601f016020900481019282610af15760008555610b38565b82601f10610b0a57805160ff1916838001178555610b38565b82800160010185558215610b38579182015b82811115610b37578251825591602001919060010190610b1c565b5b509050610b459190610b89565b5090565b508054610b55906112a8565b6000825580601f10610b675750610b86565b601f016020900490600052602060002090810190610b859190610b89565b5b50565b5b80821115610ba2576000816000905550600101610b8a565b5090565b6000610bb9610bb484611171565b61114c565b905082815260208101848484011115610bd557610bd461139d565b5b610be0848285611266565b509392505050565b600081359050610bf7816116ad565b92915050565b600081359050610c0c816116c4565b92915050565b600082601f830112610c2757610c26611398565b5b8135610c37848260208601610ba6565b91505092915050565b600060208284031215610c5657610c556113a7565b5b6000610c6484828501610be8565b91505092915050565b600080600060608486031215610c8657610c856113a7565b5b6000610c9486828701610be8565b935050602084013567ffffffffffffffff811115610cb557610cb46113a2565b5b610cc186828701610c12565b925050604084013567ffffffffffffffff811115610ce257610ce16113a2565b5b610cee86828701610c12565b9150509250925092565b600060208284031215610d0e57610d0d6113a7565b5b6000610d1c84828501610bfd565b91505092915050565b600080600060608486031215610d3e57610d3d6113a7565b5b6000610d4c86828701610bfd565b935050602084013567ffffffffffffffff811115610d6d57610d6c6113a2565b5b610d7986828701610c12565b925050604084013567ffffffffffffffff811115610d9a57610d996113a2565b5b610da686828701610c12565b9150509250925092565b610db981611214565b82525050565b610dc881611226565b82525050565b610dd781611232565b82525050565b6000610de8826111a2565b610df281856111ad565b9350610e02818560208601611275565b610e0b816113ac565b840191505092915050565b6000610e23603c836111ad565b9150610e2e826113bd565b604082019050919050565b6000610e466019836111ad565b9150610e518261140c565b602082019050919050565b6000610e696027836111ad565b9150610e7482611435565b604082019050919050565b6000610e8c6021836111ad565b9150610e9782611484565b604082019050919050565b6000610eaf6034836111ad565b9150610eba826114d3565b604082019050919050565b6000610ed26018836111ad565b9150610edd82611522565b602082019050919050565b6000610ef56021836111ad565b9150610f008261154b565b604082019050919050565b6000610f186037836111ad565b9150610f238261159a565b604082019050919050565b6000610f3b6028836111ad565b9150610f46826115e9565b604082019050919050565b6000610f5e6047836111ad565b9150610f6982611638565b606082019050919050565b610f7d8161125c565b82525050565b6000602082019050610f986000830184610db0565b92915050565b6000602082019050610fb36000830184610dbf565b92915050565b6000608082019050610fce6000830187610dce565b610fdb6020830186610f74565b8181036040830152610fed8185610ddd565b905081810360608301526110018184610ddd565b905095945050505050565b6000602082019050818103600083015261102581610e16565b9050919050565b6000602082019050818103600083015261104581610e39565b9050919050565b6000602082019050818103600083015261106581610e5c565b9050919050565b6000602082019050818103600083015261108581610e7f565b9050919050565b600060208201905081810360008301526110a581610ea2565b9050919050565b600060208201905081810360008301526110c581610ec5565b9050919050565b600060208201905081810360008301526110e581610ee8565b9050919050565b6000602082019050818103600083015261110581610f0b565b9050919050565b6000602082019050818103600083015261112581610f2e565b9050919050565b6000602082019050818103600083015261114581610f51565b9050919050565b6000611156611167565b905061116282826112da565b919050565b6000604051905090565b600067ffffffffffffffff82111561118c5761118b611369565b5b611195826113ac565b9050602081019050919050565b600081519050919050565b600082825260208201905092915050565b60006111c98261125c565b91506111d48361125c565b9250827fffffffffffffffffffffffffffffffffffffffffffffffffffffffffffffffff038211156112095761120861130b565b5b828201905092915050565b600061121f8261123c565b9050919050565b60008115159050919050565b6000819050919050565b600073ffffffffffffffffffffffffffffffffffffffff82169050919050565b6000819050919050565b82818337600083830152505050565b60005b83811015611293578082015181840152602081019050611278565b838111156112a2576000848401525b50505050565b600060028204905060018216806112c057607f821691505b602082108114156112d4576112d361133a565b5b50919050565b6112e3826113ac565b810181811067ffffffffffffffff8211171561130257611301611369565b5b80604052505050565b7f4e487b7100000000000000000000000000000000000000000000000000000000600052601160045260246000fd5b7f4e487b7100000000000000000000000000000000000000000000000000000000600052602260045260246000fd5b7f4e487b7100000000000000000000000000000000000000000000000000000000600052604160045260246000fd5b600080fd5b600080fd5b600080fd5b600080fd5b6000601f19601f8301169050919050565b7f5468657265206973206e6f206465677265652074686174206d6174636820612060008201527f737065636966696320756e69766572736974792073747564656e742100000000602082015250565b7f53706563696679206d6f64657261746f722773206e616d652e00000000000000600082015250565b7f50726f7669646564206e616d65206973206f6620756e7265616c69737469632060008201527f6c656e6774682e00000000000000000000000000000000000000000000000000602082015250565b7f54686973207573657220697320616c72656164792061206d6f64657261746f7260008201527f2100000000000000000000000000000000000000000000000000000000000000602082015250565b7f5468652070726f7669646564206164647265737320646f6573206e6f7420626560008201527f6c6f6e6720746f2061206d6f64657261746f722e000000000000000000000000602082015250565b7f41206e616d6520776173206e6f742070726f76696465642e0000000000000000600082015250565b7f546869732064656772656520697320616c72656164792076616c69646174656460008201527f2e00000000000000000000000000000000000000000000000000000000000000602082015250565b7f546869732066756e6374696f6e206973206f6e6c7920617661696c61626c652060008201527f746f204d6f64657261746f72206164647265737365732e000000000000000000602082015250565b7f506c656173652070726f7669646520612076616c696420457468657265756d2060008201527f6164647265737321000000000000000000000000000000000000000000000000602082015250565b7f546869732066756e6374696f6e206973206f6e6c7920617661696c61626c652060008201527f746f20746865226f776e6572222061646472657373206f66207468697320636f60208201527f6e74726163742e00000000000000000000000000000000000000000000000000604082015250565b6116b681611214565b81146116c157600080fd5b50565b6116cd81611232565b81146116d857600080fd5b5056fea2646970667358221220e4e88847252ddfbcd23e8ea5e12928ab7b79dac68eb33ce8af50054423ff6a4564736f6c63430008050033",
  "immutableReferences": {},
  "source": "// SPDX-License-Identifier: GPL-3.0\r\npragma solidity >=0.8.0 <0.9.0;\r\n\r\ncontract University {\r\n\r\n    struct Degree {\r\n        uint date;\r\n        string name;\r\n        string surname;\r\n    }\r\n\r\n    struct Moderator {\r\n        uint index;\r\n        string name;\r\n        string surname;\r\n        bool exist;\r\n    }\r\n\r\n    mapping(bytes32 => Degree) private degrees;\r\n    mapping(address => Moderator) private moderators;\r\n    address public university; \r\n\r\n    event DegreeAdded(bytes32 indexed _hash, address indexed _by);\r\n    event ModeratorAdded(address _address);\r\n    event ModeratorRemoved(address _address);\r\n\r\n    constructor(){\r\n        university = msg.sender; \r\n    }\r\n\r\n    modifier onlyOwner() {\r\n        require(msg.sender == university, \"This function is only available to the\\\"owner\\\" address of this contract.\");\r\n        _;\r\n    }\r\n    modifier onlyMod() {\r\n        require(isModarator(msg.sender), \"This function is only available to Moderator addresses.\");\r\n        _;\r\n    }\r\n\r\n    function addNewDegree(bytes32 _sha26PDF, string memory _name, string memory _surname) onlyMod onlyOwner public {\r\n\r\n        require(bytes(_name).length < 256, \"Provided name is of unrealistic length.\");\r\n        require(bytes(_name).length > 0, \"A name was not provided.\");\r\n        require(bytes(_surname).length < 256, \"Provided name is of unrealistic length.\");\r\n        require(bytes(_surname).length > 0, \"A name was not provided.\");\r\n        require(degrees[_sha26PDF].date == 0, \"This degree is already validated.\");\r\n\r\n        Degree storage degree = degrees[_sha26PDF];\r\n        degree.date = block.timestamp;\r\n        degree.name = _name;\r\n        degree.surname = _surname;\r\n\r\n        emit DegreeAdded(_sha26PDF, msg.sender);\r\n    }\r\n\r\n    function getDegree(bytes32 _sha26PDF) public view returns(bytes32, uint, string memory, string memory ) {\r\n        require(degrees[_sha26PDF].date != 0, \"There is no degree that match a specific university student!\");\r\n        return (_sha26PDF, degrees[_sha26PDF].date, degrees[_sha26PDF].name, degrees[_sha26PDF].surname);\r\n    }\r\n\r\n    function addModerator(address _addressModerator, string memory _name, string memory _surname) onlyOwner public {\r\n        require(_addressModerator != address(0x0), \"Please provide a valid Ethereum address!\");\r\n        require(bytes(_name).length > 0, \"Specify moderator's name.\");\r\n        require(bytes(_surname).length > 0, \"Specify moderator's name.\");\r\n        require(!isModarator(_addressModerator), \"This user is already a moderator!\");\r\n\r\n        Moderator storage moderator = moderators[_addressModerator];\r\n        moderator.index += 1;\r\n        moderator.name = _name;\r\n        moderator.surname = _surname;\r\n        moderator.exist = true;\r\n\r\n        emit ModeratorAdded(_addressModerator);\r\n    }\r\n\r\n    function removeModerator(address _addressModerator) onlyOwner public {\r\n\r\n        require(isModarator(_addressModerator), \"The provided address does not belong to a moderator.\");\r\n\r\n        delete moderators[_addressModerator];\r\n\r\n        emit ModeratorRemoved(_addressModerator);\r\n    }\r\n\r\n    function isModarator(address _addressModerator) public view returns(bool) {\r\n        if(moderators[_addressModerator].exist == true) {\r\n            return true;\r\n        } else {\r\n            return false;\r\n        }\r\n    }\r\n}",
  "sourcePath": "C:\\Users\\thana\\Pictures\\projects\\university\\contracts\\University.sol",
  "compiler": {
    "name": "solc",
    "version": "0.8.5+commit.a4f2e591.Emscripten.clang"
  },
  "schemaVersion": "3.4.3",
  "updatedAt": "2022-04-15T16:39:43.214Z",
  "devdoc": {
    "kind": "dev",
    "methods": {},
    "version": 1
  },
  "userdoc": {
    "kind": "user",
    "methods": {},
    "version": 1
  }
}