{
  "contractName": "University",
  "abi": [
    {
      "inputs": [],
      "stateMutability": "nonpayable",
      "type": "constructor"
    },
    {
      "anonymous": false,
      "inputs": [
        {
          "indexed": true,
          "internalType": "bytes32",
          "name": "_hash",
          "type": "bytes32"
        },
        {
          "indexed": true,
          "internalType": "address",
          "name": "_by",
          "type": "address"
        }
      ],
      "name": "DegreeAdded",
      "type": "event"
    },
    {
      "anonymous": false,
      "inputs": [
        {
          "indexed": false,
          "internalType": "address",
          "name": "_address",
          "type": "address"
        }
      ],
      "name": "ModeratorAdded",
      "type": "event"
    },
    {
      "anonymous": false,
      "inputs": [
        {
          "indexed": false,
          "internalType": "address",
          "name": "_address",
          "type": "address"
        }
      ],
      "name": "ModeratorRemoved",
      "type": "event"
    },
    {
      "inputs": [],
      "name": "university",
      "outputs": [
        {
          "internalType": "address",
          "name": "",
          "type": "address"
        }
      ],
      "stateMutability": "view",
      "type": "function",
      "constant": true
    },
    {
      "inputs": [],
      "name": "returnOwner",
      "outputs": [
        {
          "internalType": "address",
          "name": "",
          "type": "address"
        }
      ],
      "stateMutability": "view",
      "type": "function",
      "constant": true
    },
    {
      "inputs": [
        {
          "internalType": "bytes32",
          "name": "_sha26PDF",
          "type": "bytes32"
        },
        {
          "internalType": "string",
          "name": "_name",
          "type": "string"
        },
        {
          "internalType": "string",
          "name": "_surname",
          "type": "string"
        },
        {
          "internalType": "string",
          "name": "_date",
          "type": "string"
        }
      ],
      "name": "addNewDegree",
      "outputs": [],
      "stateMutability": "nonpayable",
      "type": "function"
    },
    {
      "inputs": [
        {
          "internalType": "bytes32",
          "name": "_sha26PDF",
          "type": "bytes32"
        }
      ],
      "name": "getDegree",
      "outputs": [
        {
          "internalType": "bytes32",
          "name": "",
          "type": "bytes32"
        },
        {
          "internalType": "uint256",
          "name": "",
          "type": "uint256"
        },
        {
          "internalType": "string",
          "name": "",
          "type": "string"
        },
        {
          "internalType": "string",
          "name": "",
          "type": "string"
        },
        {
          "internalType": "string",
          "name": "",
          "type": "string"
        }
      ],
      "stateMutability": "view",
      "type": "function",
      "constant": true
    },
    {
      "inputs": [
        {
          "internalType": "address",
          "name": "_addressModerator",
          "type": "address"
        },
        {
          "internalType": "string",
          "name": "_name",
          "type": "string"
        },
        {
          "internalType": "string",
          "name": "_surname",
          "type": "string"
        }
      ],
      "name": "addModerator",
      "outputs": [],
      "stateMutability": "nonpayable",
      "type": "function"
    },
    {
      "inputs": [
        {
          "internalType": "address",
          "name": "_addressModerator",
          "type": "address"
        }
      ],
      "name": "removeModerator",
      "outputs": [],
      "stateMutability": "nonpayable",
      "type": "function"
    },
    {
      "inputs": [
        {
          "internalType": "address",
          "name": "_addressModerator",
          "type": "address"
        }
      ],
      "name": "isModarator",
      "outputs": [
        {
          "internalType": "bool",
          "name": "",
          "type": "bool"
        }
      ],
      "stateMutability": "view",
      "type": "function",
      "constant": true
    }
  ],
  "bytecode": "0x608060405234801561001057600080fd5b5033600260006101000a81548173ffffffffffffffffffffffffffffffffffffffff021916908373ffffffffffffffffffffffffffffffffffffffff160217905550611784806100616000396000f3fe608060405234801561001057600080fd5b506004361061007d5760003560e01c80639a2803671161005b5780639a280367146100ec578063ae12894e14610108578063d04a419b14610126578063e78d571d1461015a5761007d565b80633097baca14610082578063869d785f146100b257806394a927fe146100ce575b600080fd5b61009c60048036038101906100979190610cda565b610176565b6040516100a99190611045565b60405180910390f35b6100cc60048036038101906100c79190610cda565b6101e7565b005b6100d6610377565b6040516100e3919061102a565b60405180910390f35b61010660048036038101906101019190610d07565b6103a1565b005b61011061065d565b60405161011d919061102a565b60405180910390f35b610140600480360381019061013b9190610d92565b610683565b604051610151959493929190611060565b60405180910390f35b610174600480360381019061016f9190610dbf565b6108f1565b005b600060011515600160008473ffffffffffffffffffffffffffffffffffffffff1673ffffffffffffffffffffffffffffffffffffffff16815260200190815260200160002060030160009054906101000a900460ff16151514156101dd57600190506101e2565b600090505b919050565b600260009054906101000a900473ffffffffffffffffffffffffffffffffffffffff1673ffffffffffffffffffffffffffffffffffffffff163373ffffffffffffffffffffffffffffffffffffffff1614610277576040517f08c379a000000000000000000000000000000000000000000000000000000000815260040161026e906111c8565b60405180910390fd5b61028081610176565b6102bf576040517f08c379a00000000000000000000000000000000000000000000000000000000081526004016102b690611168565b60405180910390fd5b600160008273ffffffffffffffffffffffffffffffffffffffff1673ffffffffffffffffffffffffffffffffffffffff1681526020019081526020016000206000808201600090556001820160006103179190610b5d565b6002820160006103279190610b5d565b6003820160006101000a81549060ff021916905550507f7a9f1e23d5426b34819d173153d59084cc3578d5a129b80bb27df683ac6b22788160405161036c919061102a565b60405180910390a150565b6000600260009054906101000a900473ffffffffffffffffffffffffffffffffffffffff16905090565b600260009054906101000a900473ffffffffffffffffffffffffffffffffffffffff1673ffffffffffffffffffffffffffffffffffffffff163373ffffffffffffffffffffffffffffffffffffffff1614610431576040517f08c379a0000000000000000000000000000000000000000000000000000000008152600401610428906111c8565b60405180910390fd5b600073ffffffffffffffffffffffffffffffffffffffff168373ffffffffffffffffffffffffffffffffffffffff1614156104a1576040517f08c379a0000000000000000000000000000000000000000000000000000000008152600401610498906111a8565b60405180910390fd5b60008251116104e5576040517f08c379a00000000000000000000000000000000000000000000000000000000081526004016104dc906110e8565b60405180910390fd5b6000815111610529576040517f08c379a0000000000000000000000000000000000000000000000000000000008152600401610520906110e8565b60405180910390fd5b61053283610176565b15610572576040517f08c379a000000000000000000000000000000000000000000000000000000000815260040161056990611148565b60405180910390fd5b6000600160008573ffffffffffffffffffffffffffffffffffffffff1673ffffffffffffffffffffffffffffffffffffffff168152602001908152602001600020905060018160000160008282546105ca919061125a565b92505081905550828160010190805190602001906105e9929190610b9d565b5081816002019080519060200190610602929190610b9d565b5060018160030160006101000a81548160ff0219169083151502179055507fd378ad41c1a753fd1ba9ec0fcd7970526c175b68545b4a02d6d15e7606fe35968460405161064f919061102a565b60405180910390a150505050565b600260009054906101000a900473ffffffffffffffffffffffffffffffffffffffff1681565b600080606080606060008060008881526020019081526020016000206000015414156106e4576040517f08c379a00000000000000000000000000000000000000000000000000000000081526004016106db906110c8565b60405180910390fd5b85600080888152602001908152602001600020600001546000808981526020019081526020016000206001016000808a81526020019081526020016000206002016000808b815260200190815260200160002060030182805461074690611344565b80601f016020809104026020016040519081016040528092919081815260200182805461077290611344565b80156107bf5780601f10610794576101008083540402835291602001916107bf565b820191906000526020600020905b8154815290600101906020018083116107a257829003601f168201915b505050505092508180546107d290611344565b80601f01602080910402602001604051908101604052809291908181526020018280546107fe90611344565b801561084b5780601f106108205761010080835404028352916020019161084b565b820191906000526020600020905b81548152906001019060200180831161082e57829003601f168201915b5050505050915080805461085e90611344565b80601f016020809104026020016040519081016040528092919081815260200182805461088a90611344565b80156108d75780601f106108ac576101008083540402835291602001916108d7565b820191906000526020600020905b8154815290600101906020018083116108ba57829003601f168201915b505050505090509450945094509450945091939590929450565b600260009054906101000a900473ffffffffffffffffffffffffffffffffffffffff1673ffffffffffffffffffffffffffffffffffffffff163373ffffffffffffffffffffffffffffffffffffffff1614610981576040517f08c379a0000000000000000000000000000000000000000000000000000000008152600401610978906111c8565b60405180910390fd5b6101008351106109c6576040517f08c379a00000000000000000000000000000000000000000000000000000000081526004016109bd90611108565b60405180910390fd5b610100825110610a0b576040517f08c379a0000000000000000000000000000000000000000000000000000000008152600401610a0290611108565b60405180910390fd5b610100815110610a50576040517f08c379a0000000000000000000000000000000000000000000000000000000008152600401610a4790611128565b60405180910390fd5b60008060008681526020019081526020016000206000015414610aa8576040517f08c379a0000000000000000000000000000000000000000000000000000000008152600401610a9f90611188565b60405180910390fd5b6000806000868152602001908152602001600020905042816000018190555083816001019080519060200190610adf929190610b9d565b5082816002019080519060200190610af8929190610b9d565b5081816003019080519060200190610b11929190610b9d565b503373ffffffffffffffffffffffffffffffffffffffff16857fee3f50b5cc7c6cbb1420074ccfefe053108f60cecbe0f85cd5bc0f33832e11a160405160405180910390a35050505050565b508054610b6990611344565b6000825580601f10610b7b5750610b9a565b601f016020900490600052602060002090810190610b999190610c23565b5b50565b828054610ba990611344565b90600052602060002090601f016020900481019282610bcb5760008555610c12565b82601f10610be457805160ff1916838001178555610c12565b82800160010185558215610c12579182015b82811115610c11578251825591602001919060010190610bf6565b5b509050610c1f9190610c23565b5090565b5b80821115610c3c576000816000905550600101610c24565b5090565b6000610c53610c4e8461120d565b6111e8565b905082815260208101848484011115610c6f57610c6e611439565b5b610c7a848285611302565b509392505050565b600081359050610c9181611720565b92915050565b600081359050610ca681611737565b92915050565b600082601f830112610cc157610cc0611434565b5b8135610cd1848260208601610c40565b91505092915050565b600060208284031215610cf057610cef611443565b5b6000610cfe84828501610c82565b91505092915050565b600080600060608486031215610d2057610d1f611443565b5b6000610d2e86828701610c82565b935050602084013567ffffffffffffffff811115610d4f57610d4e61143e565b5b610d5b86828701610cac565b925050604084013567ffffffffffffffff811115610d7c57610d7b61143e565b5b610d8886828701610cac565b9150509250925092565b600060208284031215610da857610da7611443565b5b6000610db684828501610c97565b91505092915050565b60008060008060808587031215610dd957610dd8611443565b5b6000610de787828801610c97565b945050602085013567ffffffffffffffff811115610e0857610e0761143e565b5b610e1487828801610cac565b935050604085013567ffffffffffffffff811115610e3557610e3461143e565b5b610e4187828801610cac565b925050606085013567ffffffffffffffff811115610e6257610e6161143e565b5b610e6e87828801610cac565b91505092959194509250565b610e83816112b0565b82525050565b610e92816112c2565b82525050565b610ea1816112ce565b82525050565b6000610eb28261123e565b610ebc8185611249565b9350610ecc818560208601611311565b610ed581611448565b840191505092915050565b6000610eed603c83611249565b9150610ef882611459565b604082019050919050565b6000610f10601983611249565b9150610f1b826114a8565b602082019050919050565b6000610f33602783611249565b9150610f3e826114d1565b604082019050919050565b6000610f56602783611249565b9150610f6182611520565b604082019050919050565b6000610f79602183611249565b9150610f848261156f565b604082019050919050565b6000610f9c603483611249565b9150610fa7826115be565b604082019050919050565b6000610fbf602183611249565b9150610fca8261160d565b604082019050919050565b6000610fe2602883611249565b9150610fed8261165c565b604082019050919050565b6000611005604783611249565b9150611010826116ab565b606082019050919050565b611024816112f8565b82525050565b600060208201905061103f6000830184610e7a565b92915050565b600060208201905061105a6000830184610e89565b92915050565b600060a0820190506110756000830188610e98565b611082602083018761101b565b81810360408301526110948186610ea7565b905081810360608301526110a88185610ea7565b905081810360808301526110bc8184610ea7565b90509695505050505050565b600060208201905081810360008301526110e181610ee0565b9050919050565b6000602082019050818103600083015261110181610f03565b9050919050565b6000602082019050818103600083015261112181610f26565b9050919050565b6000602082019050818103600083015261114181610f49565b9050919050565b6000602082019050818103600083015261116181610f6c565b9050919050565b6000602082019050818103600083015261118181610f8f565b9050919050565b600060208201905081810360008301526111a181610fb2565b9050919050565b600060208201905081810360008301526111c181610fd5565b9050919050565b600060208201905081810360008301526111e181610ff8565b9050919050565b60006111f2611203565b90506111fe8282611376565b919050565b6000604051905090565b600067ffffffffffffffff82111561122857611227611405565b5b61123182611448565b9050602081019050919050565b600081519050919050565b600082825260208201905092915050565b6000611265826112f8565b9150611270836112f8565b9250827fffffffffffffffffffffffffffffffffffffffffffffffffffffffffffffffff038211156112a5576112a46113a7565b5b828201905092915050565b60006112bb826112d8565b9050919050565b60008115159050919050565b6000819050919050565b600073ffffffffffffffffffffffffffffffffffffffff82169050919050565b6000819050919050565b82818337600083830152505050565b60005b8381101561132f578082015181840152602081019050611314565b8381111561133e576000848401525b50505050565b6000600282049050600182168061135c57607f821691505b602082108114156113705761136f6113d6565b5b50919050565b61137f82611448565b810181811067ffffffffffffffff8211171561139e5761139d611405565b5b80604052505050565b7f4e487b7100000000000000000000000000000000000000000000000000000000600052601160045260246000fd5b7f4e487b7100000000000000000000000000000000000000000000000000000000600052602260045260246000fd5b7f4e487b7100000000000000000000000000000000000000000000000000000000600052604160045260246000fd5b600080fd5b600080fd5b600080fd5b600080fd5b6000601f19601f8301169050919050565b7f5468657265206973206e6f206465677265652074686174206d6174636820612060008201527f737065636966696320756e69766572736974792073747564656e742100000000602082015250565b7f53706563696679206d6f64657261746f722773206e616d652e00000000000000600082015250565b7f50726f7669646564206e616d65206973206f6620756e7265616c69737469632060008201527f6c656e6774682e00000000000000000000000000000000000000000000000000602082015250565b7f50726f76696465642064617465206973206f6620756e7265616c69737469632060008201527f6c656e6774682e00000000000000000000000000000000000000000000000000602082015250565b7f54686973207573657220697320616c72656164792061206d6f64657261746f7260008201527f2100000000000000000000000000000000000000000000000000000000000000602082015250565b7f5468652070726f7669646564206164647265737320646f6573206e6f7420626560008201527f6c6f6e6720746f2061206d6f64657261746f722e000000000000000000000000602082015250565b7f546869732064656772656520697320616c72656164792076616c69646174656460008201527f2e00000000000000000000000000000000000000000000000000000000000000602082015250565b7f506c656173652070726f7669646520612076616c696420457468657265756d2060008201527f6164647265737321000000000000000000000000000000000000000000000000602082015250565b7f546869732066756e6374696f6e206973206f6e6c7920617661696c61626c652060008201527f746f20746865226f776e6572222061646472657373206f66207468697320636f60208201527f6e74726163742e00000000000000000000000000000000000000000000000000604082015250565b611729816112b0565b811461173457600080fd5b50565b611740816112ce565b811461174b57600080fd5b5056fea2646970667358221220f9390673990d0e691f07cc72fda40a19696545d2a99316c56fcc9068231fabd564736f6c63430008050033",
  "immutableReferences": {},
  "source": "// SPDX-License-Identifier: GPL-3.0\r\npragma solidity >=0.8.0 <0.9.0;\r\n\r\ncontract University {\r\n\r\n    struct Degree {\r\n        uint date;\r\n        string name;\r\n        string surname;\r\n        string degreeDate;\r\n    }\r\n\r\n    struct Moderator {\r\n        uint index;\r\n        string name;\r\n        string surname;\r\n        bool exist;\r\n    }\r\n\r\n    mapping(bytes32 => Degree) private degrees;\r\n    mapping(address => Moderator) private moderators;\r\n    address public university; \r\n\r\n    event DegreeAdded(bytes32 indexed _hash, address indexed _by);\r\n    event ModeratorAdded(address _address);\r\n    event ModeratorRemoved(address _address);\r\n\r\n    constructor(){\r\n        university = msg.sender; \r\n    }\r\n\r\n    modifier onlyOwner() {\r\n        require(msg.sender == university, \"This function is only available to the\\\"owner\\\" address of this contract.\");\r\n        _;\r\n    }\r\n    modifier onlyMod() {\r\n        require(isModarator(msg.sender), \"This function is only available to Moderator addresses.\");\r\n        _;\r\n    }\r\n\r\n    function returnOwner() public view returns(address) {\r\n        return university;\r\n    }\r\n\r\n    function addNewDegree(bytes32 _sha26PDF, string memory _name, string memory _surname, string memory _date) onlyOwner public {\r\n\r\n        require(bytes(_name).length < 256, \"Provided name is of unrealistic length.\");\r\n        //require(bytes(_name).length > 0, \"A name was not provided.\");\r\n        require(bytes(_surname).length < 256, \"Provided name is of unrealistic length.\");\r\n        //require(bytes(_surname).length > 0, \"A name was not provided.\");\r\n        require(bytes(_date).length < 256, \"Provided date is of unrealistic length.\");\r\n        require(degrees[_sha26PDF].date == 0, \"This degree is already validated.\");\r\n\r\n        Degree storage degree = degrees[_sha26PDF];\r\n        degree.date = block.timestamp;\r\n        degree.name = _name;\r\n        degree.surname = _surname;\r\n        degree.degreeDate = _date;\r\n\r\n        emit DegreeAdded(_sha26PDF, msg.sender);\r\n    }\r\n\r\n    function getDegree(bytes32 _sha26PDF) public view returns(bytes32, uint, string memory, string memory, string memory ) {\r\n        require(degrees[_sha26PDF].date != 0, \"There is no degree that match a specific university student!\");\r\n        return (_sha26PDF, degrees[_sha26PDF].date, degrees[_sha26PDF].name, degrees[_sha26PDF].surname, degrees[_sha26PDF].degreeDate);\r\n    }\r\n\r\n    function addModerator(address _addressModerator, string memory _name, string memory _surname) onlyOwner public {\r\n        require(_addressModerator != address(0x0), \"Please provide a valid Ethereum address!\");\r\n        require(bytes(_name).length > 0, \"Specify moderator's name.\");\r\n        require(bytes(_surname).length > 0, \"Specify moderator's name.\");\r\n        require(!isModarator(_addressModerator), \"This user is already a moderator!\");\r\n\r\n        Moderator storage moderator = moderators[_addressModerator];\r\n        moderator.index += 1;\r\n        moderator.name = _name;\r\n        moderator.surname = _surname;\r\n        moderator.exist = true;\r\n\r\n        emit ModeratorAdded(_addressModerator);\r\n    }\r\n\r\n    function removeModerator(address _addressModerator) onlyOwner public {\r\n\r\n        require(isModarator(_addressModerator), \"The provided address does not belong to a moderator.\");\r\n\r\n        delete moderators[_addressModerator];\r\n\r\n        emit ModeratorRemoved(_addressModerator);\r\n    }\r\n\r\n    function isModarator(address _addressModerator) public view returns(bool) {\r\n        if(moderators[_addressModerator].exist == true) {\r\n            return true;\r\n        } else {\r\n            return false;\r\n        }\r\n    }\r\n}",
  "sourcePath": "C:\\Users\\thana\\Pictures\\projects\\university\\contracts\\University.sol",
  "compiler": {
    "name": "solc",
    "version": "0.8.5+commit.a4f2e591.Emscripten.clang"
  },
  "schemaVersion": "3.4.3",
  "updatedAt": "2022-06-16T15:22:09.262Z",
  "networkType": "ethereum",
  "devdoc": {
    "kind": "dev",
    "methods": {},
    "version": 1
  },
  "userdoc": {
    "kind": "user",
    "methods": {},
    "version": 1
  }
}